:10000000900079759000758000C2B0D2B1758920DA
:10001000758BC9758DFF74007900D2B0113BC2B0E9
:1000200030B1FDD28E308FFDC28EC28F04B4640316
:1000300009740020B1EDFC114080D57EEFDEFE2278
:100040007D64EC75F00A84D2911176F580117111FE
:1000500071E5F0C291D2921176F58011711171E9BA
:10006000C292D2901176F58011711171C290DDD2D9
:10007000227FFADFFE2293F4223F065B4F666D7DFE
:03008000077F6F88
:00000001FF
